{
  "contractName": "GameItem",
  "abi": [
    {
      "inputs": [],
      "stateMutability": "nonpayable",
      "type": "constructor"
    },
    {
      "anonymous": false,
      "inputs": [
        {
          "indexed": true,
          "internalType": "address",
          "name": "owner",
          "type": "address"
        },
        {
          "indexed": true,
          "internalType": "address",
          "name": "approved",
          "type": "address"
        },
        {
          "indexed": true,
          "internalType": "uint256",
          "name": "tokenId",
          "type": "uint256"
        }
      ],
      "name": "Approval",
      "type": "event"
    },
    {
      "anonymous": false,
      "inputs": [
        {
          "indexed": true,
          "internalType": "address",
          "name": "owner",
          "type": "address"
        },
        {
          "indexed": true,
          "internalType": "address",
          "name": "operator",
          "type": "address"
        },
        {
          "indexed": false,
          "internalType": "bool",
          "name": "approved",
          "type": "bool"
        }
      ],
      "name": "ApprovalForAll",
      "type": "event"
    },
    {
      "anonymous": false,
      "inputs": [
        {
          "indexed": true,
          "internalType": "address",
          "name": "previousOwner",
          "type": "address"
        },
        {
          "indexed": true,
          "internalType": "address",
          "name": "newOwner",
          "type": "address"
        }
      ],
      "name": "OwnershipTransferred",
      "type": "event"
    },
    {
      "anonymous": false,
      "inputs": [
        {
          "indexed": true,
          "internalType": "address",
          "name": "from",
          "type": "address"
        },
        {
          "indexed": true,
          "internalType": "address",
          "name": "to",
          "type": "address"
        },
        {
          "indexed": true,
          "internalType": "uint256",
          "name": "tokenId",
          "type": "uint256"
        }
      ],
      "name": "Transfer",
      "type": "event"
    },
    {
      "inputs": [
        {
          "internalType": "address",
          "name": "to",
          "type": "address"
        },
        {
          "internalType": "uint256",
          "name": "tokenId",
          "type": "uint256"
        }
      ],
      "name": "approve",
      "outputs": [],
      "stateMutability": "nonpayable",
      "type": "function"
    },
    {
      "inputs": [
        {
          "internalType": "address",
          "name": "owner",
          "type": "address"
        }
      ],
      "name": "balanceOf",
      "outputs": [
        {
          "internalType": "uint256",
          "name": "",
          "type": "uint256"
        }
      ],
      "stateMutability": "view",
      "type": "function",
      "constant": true
    },
    {
      "inputs": [
        {
          "internalType": "uint256",
          "name": "tokenId",
          "type": "uint256"
        }
      ],
      "name": "getApproved",
      "outputs": [
        {
          "internalType": "address",
          "name": "",
          "type": "address"
        }
      ],
      "stateMutability": "view",
      "type": "function",
      "constant": true
    },
    {
      "inputs": [
        {
          "internalType": "address",
          "name": "owner",
          "type": "address"
        },
        {
          "internalType": "address",
          "name": "operator",
          "type": "address"
        }
      ],
      "name": "isApprovedForAll",
      "outputs": [
        {
          "internalType": "bool",
          "name": "",
          "type": "bool"
        }
      ],
      "stateMutability": "view",
      "type": "function",
      "constant": true
    },
    {
      "inputs": [],
      "name": "name",
      "outputs": [
        {
          "internalType": "string",
          "name": "",
          "type": "string"
        }
      ],
      "stateMutability": "view",
      "type": "function",
      "constant": true
    },
    {
      "inputs": [],
      "name": "owner",
      "outputs": [
        {
          "internalType": "address",
          "name": "",
          "type": "address"
        }
      ],
      "stateMutability": "view",
      "type": "function",
      "constant": true
    },
    {
      "inputs": [
        {
          "internalType": "uint256",
          "name": "tokenId",
          "type": "uint256"
        }
      ],
      "name": "ownerOf",
      "outputs": [
        {
          "internalType": "address",
          "name": "",
          "type": "address"
        }
      ],
      "stateMutability": "view",
      "type": "function",
      "constant": true
    },
    {
      "inputs": [],
      "name": "renounceOwnership",
      "outputs": [],
      "stateMutability": "nonpayable",
      "type": "function"
    },
    {
      "inputs": [
        {
          "internalType": "address",
          "name": "from",
          "type": "address"
        },
        {
          "internalType": "address",
          "name": "to",
          "type": "address"
        },
        {
          "internalType": "uint256",
          "name": "tokenId",
          "type": "uint256"
        }
      ],
      "name": "safeTransferFrom",
      "outputs": [],
      "stateMutability": "nonpayable",
      "type": "function"
    },
    {
      "inputs": [
        {
          "internalType": "address",
          "name": "from",
          "type": "address"
        },
        {
          "internalType": "address",
          "name": "to",
          "type": "address"
        },
        {
          "internalType": "uint256",
          "name": "tokenId",
          "type": "uint256"
        },
        {
          "internalType": "bytes",
          "name": "_data",
          "type": "bytes"
        }
      ],
      "name": "safeTransferFrom",
      "outputs": [],
      "stateMutability": "nonpayable",
      "type": "function"
    },
    {
      "inputs": [
        {
          "internalType": "address",
          "name": "operator",
          "type": "address"
        },
        {
          "internalType": "bool",
          "name": "approved",
          "type": "bool"
        }
      ],
      "name": "setApprovalForAll",
      "outputs": [],
      "stateMutability": "nonpayable",
      "type": "function"
    },
    {
      "inputs": [
        {
          "internalType": "bytes4",
          "name": "interfaceId",
          "type": "bytes4"
        }
      ],
      "name": "supportsInterface",
      "outputs": [
        {
          "internalType": "bool",
          "name": "",
          "type": "bool"
        }
      ],
      "stateMutability": "view",
      "type": "function",
      "constant": true
    },
    {
      "inputs": [],
      "name": "symbol",
      "outputs": [
        {
          "internalType": "string",
          "name": "",
          "type": "string"
        }
      ],
      "stateMutability": "view",
      "type": "function",
      "constant": true
    },
    {
      "inputs": [
        {
          "internalType": "uint256",
          "name": "tokenId",
          "type": "uint256"
        }
      ],
      "name": "tokenURI",
      "outputs": [
        {
          "internalType": "string",
          "name": "",
          "type": "string"
        }
      ],
      "stateMutability": "view",
      "type": "function",
      "constant": true
    },
    {
      "inputs": [
        {
          "internalType": "address",
          "name": "from",
          "type": "address"
        },
        {
          "internalType": "address",
          "name": "to",
          "type": "address"
        },
        {
          "internalType": "uint256",
          "name": "tokenId",
          "type": "uint256"
        }
      ],
      "name": "transferFrom",
      "outputs": [],
      "stateMutability": "nonpayable",
      "type": "function"
    },
    {
      "inputs": [
        {
          "internalType": "address",
          "name": "newOwner",
          "type": "address"
        }
      ],
      "name": "transferOwnership",
      "outputs": [],
      "stateMutability": "nonpayable",
      "type": "function"
    },
    {
      "inputs": [],
      "name": "totalSupply",
      "outputs": [
        {
          "internalType": "uint256",
          "name": "",
          "type": "uint256"
        }
      ],
      "stateMutability": "view",
      "type": "function",
      "constant": true
    },
    {
      "inputs": [],
      "name": "contractURI",
      "outputs": [
        {
          "internalType": "string",
          "name": "",
          "type": "string"
        }
      ],
      "stateMutability": "pure",
      "type": "function",
      "constant": true
    },
    {
      "inputs": [
        {
          "internalType": "address",
          "name": "player",
          "type": "address"
        },
        {
          "internalType": "string",
          "name": "tokenURI",
          "type": "string"
        }
      ],
      "name": "mintItem",
      "outputs": [
        {
          "internalType": "uint256",
          "name": "",
          "type": "uint256"
        }
      ],
      "stateMutability": "nonpayable",
      "type": "function"
    }
  ],
  "bytecode": "0x60806040523480156200001157600080fd5b506040518060400160405280600d81526020017f436f6e7472616374204e616d65000000000000000000000000000000000000008152506040518060400160405280600381526020017f5449430000000000000000000000000000000000000000000000000000000000815250816000908051906020019062000096929190620001a6565b508060019080519060200190620000af929190620001a6565b505050620000d2620000c6620000d860201b60201c565b620000e060201b60201c565b620002bb565b600033905090565b6000600760009054906101000a900473ffffffffffffffffffffffffffffffffffffffff16905081600760006101000a81548173ffffffffffffffffffffffffffffffffffffffff021916908373ffffffffffffffffffffffffffffffffffffffff1602179055508173ffffffffffffffffffffffffffffffffffffffff168173ffffffffffffffffffffffffffffffffffffffff167f8be0079c531659141344cd1fd0a4f28419497f9722a3daafe3b4186f6b6457e060405160405180910390a35050565b828054620001b49062000256565b90600052602060002090601f016020900481019282620001d8576000855562000224565b82601f10620001f357805160ff191683800117855562000224565b8280016001018555821562000224579182015b828111156200022357825182559160200191906001019062000206565b5b50905062000233919062000237565b5090565b5b808211156200025257600081600090555060010162000238565b5090565b600060028204905060018216806200026f57607f821691505b602082108114156200028657620002856200028c565b5b50919050565b7f4e487b7100000000000000000000000000000000000000000000000000000000600052602260045260246000fd5b612f9d80620002cb6000396000f3fe608060405234801561001057600080fd5b50600436106101215760003560e01c806370a08231116100ad578063b88d4fde11610071578063b88d4fde14610308578063c87b56dd14610324578063e8a3d48514610354578063e985e9c514610372578063f2fde38b146103a257610121565b806370a0823114610276578063715018a6146102a65780638da5cb5b146102b057806395d89b41146102ce578063a22cb465146102ec57610121565b8063110bcd45116100f4578063110bcd45146101c057806318160ddd146101f057806323b872dd1461020e57806342842e0e1461022a5780636352211e1461024657610121565b806301ffc9a71461012657806306fdde0314610156578063081812fc14610174578063095ea7b3146101a4575b600080fd5b610140600480360381019061013b9190611fed565b6103be565b60405161014d9190612857565b60405180910390f35b61015e6104a0565b60405161016b9190612872565b60405180910390f35b61018e6004803603810190610189919061203f565b610532565b60405161019b91906127f0565b60405180910390f35b6101be60048036038101906101b99190611fb1565b6105b7565b005b6101da60048036038101906101d59190611f5d565b6106cf565b6040516101e79190612ad4565b60405180910390f35b6101f8610783565b6040516102059190612ad4565b60405180910390f35b61022860048036038101906102239190611e57565b610794565b005b610244600480360381019061023f9190611e57565b6107f4565b005b610260600480360381019061025b919061203f565b610814565b60405161026d91906127f0565b60405180910390f35b610290600480360381019061028b9190611df2565b6108c6565b60405161029d9190612ad4565b60405180910390f35b6102ae61097e565b005b6102b8610a06565b6040516102c591906127f0565b60405180910390f35b6102d6610a30565b6040516102e39190612872565b60405180910390f35b61030660048036038101906103019190611f21565b610ac2565b005b610322600480360381019061031d9190611ea6565b610c43565b005b61033e6004803603810190610339919061203f565b610ca5565b60405161034b9190612872565b60405180910390f35b61035c610df7565b6040516103699190612872565b60405180910390f35b61038c60048036038101906103879190611e1b565b610e17565b6040516103999190612857565b60405180910390f35b6103bc60048036038101906103b79190611df2565b610eab565b005b60007f80ac58cd000000000000000000000000000000000000000000000000000000007bffffffffffffffffffffffffffffffffffffffffffffffffffffffff1916827bffffffffffffffffffffffffffffffffffffffffffffffffffffffff1916148061048957507f5b5e139f000000000000000000000000000000000000000000000000000000007bffffffffffffffffffffffffffffffffffffffffffffffffffffffff1916827bffffffffffffffffffffffffffffffffffffffffffffffffffffffff1916145b80610499575061049882610fa3565b5b9050919050565b6060600080546104af90612d34565b80601f01602080910402602001604051908101604052809291908181526020018280546104db90612d34565b80156105285780601f106104fd57610100808354040283529160200191610528565b820191906000526020600020905b81548152906001019060200180831161050b57829003601f168201915b5050505050905090565b600061053d8261100d565b61057c576040517f08c379a000000000000000000000000000000000000000000000000000000000815260040161057390612a14565b60405180910390fd5b6004600083815260200190815260200160002060009054906101000a900473ffffffffffffffffffffffffffffffffffffffff169050919050565b60006105c282610814565b90508073ffffffffffffffffffffffffffffffffffffffff168373ffffffffffffffffffffffffffffffffffffffff161415610633576040517f08c379a000000000000000000000000000000000000000000000000000000000815260040161062a90612a94565b60405180910390fd5b8073ffffffffffffffffffffffffffffffffffffffff16610652611079565b73ffffffffffffffffffffffffffffffffffffffff16148061068157506106808161067b611079565b610e17565b5b6106c0576040517f08c379a00000000000000000000000000000000000000000000000000000000081526004016106b790612954565b60405180910390fd5b6106ca8383611081565b505050565b60006106d9611079565b73ffffffffffffffffffffffffffffffffffffffff166106f7610a06565b73ffffffffffffffffffffffffffffffffffffffff161461074d576040517f08c379a000000000000000000000000000000000000000000000000000000000815260040161074490612a34565b60405180910390fd5b610757600861113a565b60006107636008611150565b905061076f848261115e565b610779818461132c565b8091505092915050565b600061078f6008611150565b905090565b6107a561079f611079565b826113a0565b6107e4576040517f08c379a00000000000000000000000000000000000000000000000000000000081526004016107db90612ab4565b60405180910390fd5b6107ef83838361147e565b505050565b61080f83838360405180602001604052806000815250610c43565b505050565b6000806002600084815260200190815260200160002060009054906101000a900473ffffffffffffffffffffffffffffffffffffffff169050600073ffffffffffffffffffffffffffffffffffffffff168173ffffffffffffffffffffffffffffffffffffffff1614156108bd576040517f08c379a00000000000000000000000000000000000000000000000000000000081526004016108b490612994565b60405180910390fd5b80915050919050565b60008073ffffffffffffffffffffffffffffffffffffffff168273ffffffffffffffffffffffffffffffffffffffff161415610937576040517f08c379a000000000000000000000000000000000000000000000000000000000815260040161092e90612974565b60405180910390fd5b600360008373ffffffffffffffffffffffffffffffffffffffff1673ffffffffffffffffffffffffffffffffffffffff168152602001908152602001600020549050919050565b610986611079565b73ffffffffffffffffffffffffffffffffffffffff166109a4610a06565b73ffffffffffffffffffffffffffffffffffffffff16146109fa576040517f08c379a00000000000000000000000000000000000000000000000000000000081526004016109f190612a34565b60405180910390fd5b610a0460006116da565b565b6000600760009054906101000a900473ffffffffffffffffffffffffffffffffffffffff16905090565b606060018054610a3f90612d34565b80601f0160208091040260200160405190810160405280929190818152602001828054610a6b90612d34565b8015610ab85780601f10610a8d57610100808354040283529160200191610ab8565b820191906000526020600020905b815481529060010190602001808311610a9b57829003601f168201915b5050505050905090565b610aca611079565b73ffffffffffffffffffffffffffffffffffffffff168273ffffffffffffffffffffffffffffffffffffffff161415610b38576040517f08c379a0000000000000000000000000000000000000000000000000000000008152600401610b2f90612914565b60405180910390fd5b8060056000610b45611079565b73ffffffffffffffffffffffffffffffffffffffff1673ffffffffffffffffffffffffffffffffffffffff16815260200190815260200160002060008473ffffffffffffffffffffffffffffffffffffffff1673ffffffffffffffffffffffffffffffffffffffff16815260200190815260200160002060006101000a81548160ff0219169083151502179055508173ffffffffffffffffffffffffffffffffffffffff16610bf2611079565b73ffffffffffffffffffffffffffffffffffffffff167f17307eab39ab6107e8899845ad3d59bd9653f200f220920489ca2b5937696c3183604051610c379190612857565b60405180910390a35050565b610c54610c4e611079565b836113a0565b610c93576040517f08c379a0000000000000000000000000000000000000000000000000000000008152600401610c8a90612ab4565b60405180910390fd5b610c9f848484846117a0565b50505050565b6060610cb08261100d565b610cef576040517f08c379a0000000000000000000000000000000000000000000000000000000008152600401610ce6906129f4565b60405180910390fd5b6000600660008481526020019081526020016000208054610d0f90612d34565b80601f0160208091040260200160405190810160405280929190818152602001828054610d3b90612d34565b8015610d885780601f10610d5d57610100808354040283529160200191610d88565b820191906000526020600020905b815481529060010190602001808311610d6b57829003601f168201915b505050505090506000610d996117fc565b9050600081511415610daf578192505050610df2565b600082511115610de4578082604051602001610dcc9291906127cc565b60405160208183030381529060405292505050610df2565b610ded84611813565b925050505b919050565b60606040518060800160405280605e8152602001612f0a605e9139905090565b6000600560008473ffffffffffffffffffffffffffffffffffffffff1673ffffffffffffffffffffffffffffffffffffffff16815260200190815260200160002060008373ffffffffffffffffffffffffffffffffffffffff1673ffffffffffffffffffffffffffffffffffffffff16815260200190815260200160002060009054906101000a900460ff16905092915050565b610eb3611079565b73ffffffffffffffffffffffffffffffffffffffff16610ed1610a06565b73ffffffffffffffffffffffffffffffffffffffff1614610f27576040517f08c379a0000000000000000000000000000000000000000000000000000000008152600401610f1e90612a34565b60405180910390fd5b600073ffffffffffffffffffffffffffffffffffffffff168173ffffffffffffffffffffffffffffffffffffffff161415610f97576040517f08c379a0000000000000000000000000000000000000000000000000000000008152600401610f8e906128b4565b60405180910390fd5b610fa0816116da565b50565b60007f01ffc9a7000000000000000000000000000000000000000000000000000000007bffffffffffffffffffffffffffffffffffffffffffffffffffffffff1916827bffffffffffffffffffffffffffffffffffffffffffffffffffffffff1916149050919050565b60008073ffffffffffffffffffffffffffffffffffffffff166002600084815260200190815260200160002060009054906101000a900473ffffffffffffffffffffffffffffffffffffffff1673ffffffffffffffffffffffffffffffffffffffff1614159050919050565b600033905090565b816004600083815260200190815260200160002060006101000a81548173ffffffffffffffffffffffffffffffffffffffff021916908373ffffffffffffffffffffffffffffffffffffffff160217905550808273ffffffffffffffffffffffffffffffffffffffff166110f483610814565b73ffffffffffffffffffffffffffffffffffffffff167f8c5be1e5ebec7d5bd14f71427d1e84f3dd0314c0f7b2291e5b200ac8c7c3b92560405160405180910390a45050565b6001816000016000828254019250508190555050565b600081600001549050919050565b600073ffffffffffffffffffffffffffffffffffffffff168273ffffffffffffffffffffffffffffffffffffffff1614156111ce576040517f08c379a00000000000000000000000000000000000000000000000000000000081526004016111c5906129d4565b60405180910390fd5b6111d78161100d565b15611217576040517f08c379a000000000000000000000000000000000000000000000000000000000815260040161120e906128d4565b60405180910390fd5b611223600083836118ba565b6001600360008473ffffffffffffffffffffffffffffffffffffffff1673ffffffffffffffffffffffffffffffffffffffff16815260200190815260200160002060008282546112739190612bc3565b92505081905550816002600083815260200190815260200160002060006101000a81548173ffffffffffffffffffffffffffffffffffffffff021916908373ffffffffffffffffffffffffffffffffffffffff160217905550808273ffffffffffffffffffffffffffffffffffffffff16600073ffffffffffffffffffffffffffffffffffffffff167fddf252ad1be2c89b69c2b068fc378daa952ba7f163c4a11628f55a4df523b3ef60405160405180910390a45050565b6113358261100d565b611374576040517f08c379a000000000000000000000000000000000000000000000000000000000815260040161136b906129b4565b60405180910390fd5b8060066000848152602001908152602001600020908051906020019061139b929190611c16565b505050565b60006113ab8261100d565b6113ea576040517f08c379a00000000000000000000000000000000000000000000000000000000081526004016113e190612934565b60405180910390fd5b60006113f583610814565b90508073ffffffffffffffffffffffffffffffffffffffff168473ffffffffffffffffffffffffffffffffffffffff16148061146457508373ffffffffffffffffffffffffffffffffffffffff1661144c84610532565b73ffffffffffffffffffffffffffffffffffffffff16145b8061147557506114748185610e17565b5b91505092915050565b8273ffffffffffffffffffffffffffffffffffffffff1661149e82610814565b73ffffffffffffffffffffffffffffffffffffffff16146114f4576040517f08c379a00000000000000000000000000000000000000000000000000000000081526004016114eb90612a54565b60405180910390fd5b600073ffffffffffffffffffffffffffffffffffffffff168273ffffffffffffffffffffffffffffffffffffffff161415611564576040517f08c379a000000000000000000000000000000000000000000000000000000000815260040161155b906128f4565b60405180910390fd5b61156f8383836118ba565b61157a600082611081565b6001600360008573ffffffffffffffffffffffffffffffffffffffff1673ffffffffffffffffffffffffffffffffffffffff16815260200190815260200160002060008282546115ca9190612c4a565b925050819055506001600360008473ffffffffffffffffffffffffffffffffffffffff1673ffffffffffffffffffffffffffffffffffffffff16815260200190815260200160002060008282546116219190612bc3565b92505081905550816002600083815260200190815260200160002060006101000a81548173ffffffffffffffffffffffffffffffffffffffff021916908373ffffffffffffffffffffffffffffffffffffffff160217905550808273ffffffffffffffffffffffffffffffffffffffff168473ffffffffffffffffffffffffffffffffffffffff167fddf252ad1be2c89b69c2b068fc378daa952ba7f163c4a11628f55a4df523b3ef60405160405180910390a4505050565b6000600760009054906101000a900473ffffffffffffffffffffffffffffffffffffffff16905081600760006101000a81548173ffffffffffffffffffffffffffffffffffffffff021916908373ffffffffffffffffffffffffffffffffffffffff1602179055508173ffffffffffffffffffffffffffffffffffffffff168173ffffffffffffffffffffffffffffffffffffffff167f8be0079c531659141344cd1fd0a4f28419497f9722a3daafe3b4186f6b6457e060405160405180910390a35050565b6117ab84848461147e565b6117b7848484846118bf565b6117f6576040517f08c379a00000000000000000000000000000000000000000000000000000000081526004016117ed90612894565b60405180910390fd5b50505050565b606060405180602001604052806000815250905090565b606061181e8261100d565b61185d576040517f08c379a000000000000000000000000000000000000000000000000000000000815260040161185490612a74565b60405180910390fd5b60006118676117fc565b9050600081511161188757604051806020016040528060008152506118b2565b8061189184611a56565b6040516020016118a29291906127cc565b6040516020818303038152906040525b915050919050565b505050565b60006118e08473ffffffffffffffffffffffffffffffffffffffff16611c03565b15611a49578373ffffffffffffffffffffffffffffffffffffffff1663150b7a02611909611079565b8786866040518563ffffffff1660e01b815260040161192b949392919061280b565b602060405180830381600087803b15801561194557600080fd5b505af192505050801561197657506040513d601f19601f820116820180604052508101906119739190612016565b60015b6119f9573d80600081146119a6576040519150601f19603f3d011682016040523d82523d6000602084013e6119ab565b606091505b506000815114156119f1576040517f08c379a00000000000000000000000000000000000000000000000000000000081526004016119e890612894565b60405180910390fd5b805181602001fd5b63150b7a0260e01b7bffffffffffffffffffffffffffffffffffffffffffffffffffffffff1916817bffffffffffffffffffffffffffffffffffffffffffffffffffffffff191614915050611a4e565b600190505b949350505050565b60606000821415611a9e576040518060400160405280600181526020017f30000000000000000000000000000000000000000000000000000000000000008152509050611bfe565b600082905060005b60008214611ad0578080611ab990612d66565b915050600a82611ac99190612c19565b9150611aa6565b60008167ffffffffffffffff811115611b12577f4e487b7100000000000000000000000000000000000000000000000000000000600052604160045260246000fd5b6040519080825280601f01601f191660200182016040528015611b445781602001600182028036833780820191505090505b5090505b60008514611bf757600182611b5d9190612c4a565b9150600a85611b6c9190612daf565b6030611b789190612bc3565b60f81b818381518110611bb4577f4e487b7100000000000000000000000000000000000000000000000000000000600052603260045260246000fd5b60200101907effffffffffffffffffffffffffffffffffffffffffffffffffffffffffffff1916908160001a905350600a85611bf09190612c19565b9450611b48565b8093505050505b919050565b600080823b905060008111915050919050565b828054611c2290612d34565b90600052602060002090601f016020900481019282611c445760008555611c8b565b82601f10611c5d57805160ff1916838001178555611c8b565b82800160010185558215611c8b579182015b82811115611c8a578251825591602001919060010190611c6f565b5b509050611c989190611c9c565b5090565b5b80821115611cb5576000816000905550600101611c9d565b5090565b6000611ccc611cc784612b20565b612aef565b905082815260208101848484011115611ce457600080fd5b611cef848285612cf2565b509392505050565b6000611d0a611d0584612b50565b612aef565b905082815260208101848484011115611d2257600080fd5b611d2d848285612cf2565b509392505050565b600081359050611d4481612ead565b92915050565b600081359050611d5981612ec4565b92915050565b600081359050611d6e81612edb565b92915050565b600081519050611d8381612edb565b92915050565b600082601f830112611d9a57600080fd5b8135611daa848260208601611cb9565b91505092915050565b600082601f830112611dc457600080fd5b8135611dd4848260208601611cf7565b91505092915050565b600081359050611dec81612ef2565b92915050565b600060208284031215611e0457600080fd5b6000611e1284828501611d35565b91505092915050565b60008060408385031215611e2e57600080fd5b6000611e3c85828601611d35565b9250506020611e4d85828601611d35565b9150509250929050565b600080600060608486031215611e6c57600080fd5b6000611e7a86828701611d35565b9350506020611e8b86828701611d35565b9250506040611e9c86828701611ddd565b9150509250925092565b60008060008060808587031215611ebc57600080fd5b6000611eca87828801611d35565b9450506020611edb87828801611d35565b9350506040611eec87828801611ddd565b925050606085013567ffffffffffffffff811115611f0957600080fd5b611f1587828801611d89565b91505092959194509250565b60008060408385031215611f3457600080fd5b6000611f4285828601611d35565b9250506020611f5385828601611d4a565b9150509250929050565b60008060408385031215611f7057600080fd5b6000611f7e85828601611d35565b925050602083013567ffffffffffffffff811115611f9b57600080fd5b611fa785828601611db3565b9150509250929050565b60008060408385031215611fc457600080fd5b6000611fd285828601611d35565b9250506020611fe385828601611ddd565b9150509250929050565b600060208284031215611fff57600080fd5b600061200d84828501611d5f565b91505092915050565b60006020828403121561202857600080fd5b600061203684828501611d74565b91505092915050565b60006020828403121561205157600080fd5b600061205f84828501611ddd565b91505092915050565b61207181612c7e565b82525050565b61208081612c90565b82525050565b600061209182612b80565b61209b8185612b96565b93506120ab818560208601612d01565b6120b481612e9c565b840191505092915050565b60006120ca82612b8b565b6120d48185612ba7565b93506120e4818560208601612d01565b6120ed81612e9c565b840191505092915050565b600061210382612b8b565b61210d8185612bb8565b935061211d818560208601612d01565b80840191505092915050565b6000612136603283612ba7565b91507f4552433732313a207472616e7366657220746f206e6f6e20455243373231526560008301527f63656976657220696d706c656d656e74657200000000000000000000000000006020830152604082019050919050565b600061219c602683612ba7565b91507f4f776e61626c653a206e6577206f776e657220697320746865207a65726f206160008301527f64647265737300000000000000000000000000000000000000000000000000006020830152604082019050919050565b6000612202601c83612ba7565b91507f4552433732313a20746f6b656e20616c7265616479206d696e746564000000006000830152602082019050919050565b6000612242602483612ba7565b91507f4552433732313a207472616e7366657220746f20746865207a65726f2061646460008301527f72657373000000000000000000000000000000000000000000000000000000006020830152604082019050919050565b60006122a8601983612ba7565b91507f4552433732313a20617070726f766520746f2063616c6c6572000000000000006000830152602082019050919050565b60006122e8602c83612ba7565b91507f4552433732313a206f70657261746f7220717565727920666f72206e6f6e657860008301527f697374656e7420746f6b656e00000000000000000000000000000000000000006020830152604082019050919050565b600061234e603883612ba7565b91507f4552433732313a20617070726f76652063616c6c6572206973206e6f74206f7760008301527f6e6572206e6f7220617070726f76656420666f7220616c6c00000000000000006020830152604082019050919050565b60006123b4602a83612ba7565b91507f4552433732313a2062616c616e636520717565727920666f7220746865207a6560008301527f726f2061646472657373000000000000000000000000000000000000000000006020830152604082019050919050565b600061241a602983612ba7565b91507f4552433732313a206f776e657220717565727920666f72206e6f6e657869737460008301527f656e7420746f6b656e00000000000000000000000000000000000000000000006020830152604082019050919050565b6000612480602e83612ba7565b91507f45524337323155524953746f726167653a2055524920736574206f66206e6f6e60008301527f6578697374656e7420746f6b656e0000000000000000000000000000000000006020830152604082019050919050565b60006124e6602083612ba7565b91507f4552433732313a206d696e7420746f20746865207a65726f20616464726573736000830152602082019050919050565b6000612526603183612ba7565b91507f45524337323155524953746f726167653a2055524920717565727920666f722060008301527f6e6f6e6578697374656e7420746f6b656e0000000000000000000000000000006020830152604082019050919050565b600061258c602c83612ba7565b91507f4552433732313a20617070726f76656420717565727920666f72206e6f6e657860008301527f697374656e7420746f6b656e00000000000000000000000000000000000000006020830152604082019050919050565b60006125f2602083612ba7565b91507f4f776e61626c653a2063616c6c6572206973206e6f7420746865206f776e65726000830152602082019050919050565b6000612632602983612ba7565b91507f4552433732313a207472616e73666572206f6620746f6b656e2074686174206960008301527f73206e6f74206f776e00000000000000000000000000000000000000000000006020830152604082019050919050565b6000612698602f83612ba7565b91507f4552433732314d657461646174613a2055524920717565727920666f72206e6f60008301527f6e6578697374656e7420746f6b656e00000000000000000000000000000000006020830152604082019050919050565b60006126fe602183612ba7565b91507f4552433732313a20617070726f76616c20746f2063757272656e74206f776e6560008301527f72000000000000000000000000000000000000000000000000000000000000006020830152604082019050919050565b6000612764603183612ba7565b91507f4552433732313a207472616e736665722063616c6c6572206973206e6f74206f60008301527f776e6572206e6f7220617070726f7665640000000000000000000000000000006020830152604082019050919050565b6127c681612ce8565b82525050565b60006127d882856120f8565b91506127e482846120f8565b91508190509392505050565b60006020820190506128056000830184612068565b92915050565b60006080820190506128206000830187612068565b61282d6020830186612068565b61283a60408301856127bd565b818103606083015261284c8184612086565b905095945050505050565b600060208201905061286c6000830184612077565b92915050565b6000602082019050818103600083015261288c81846120bf565b905092915050565b600060208201905081810360008301526128ad81612129565b9050919050565b600060208201905081810360008301526128cd8161218f565b9050919050565b600060208201905081810360008301526128ed816121f5565b9050919050565b6000602082019050818103600083015261290d81612235565b9050919050565b6000602082019050818103600083015261292d8161229b565b9050919050565b6000602082019050818103600083015261294d816122db565b9050919050565b6000602082019050818103600083015261296d81612341565b9050919050565b6000602082019050818103600083015261298d816123a7565b9050919050565b600060208201905081810360008301526129ad8161240d565b9050919050565b600060208201905081810360008301526129cd81612473565b9050919050565b600060208201905081810360008301526129ed816124d9565b9050919050565b60006020820190508181036000830152612a0d81612519565b9050919050565b60006020820190508181036000830152612a2d8161257f565b9050919050565b60006020820190508181036000830152612a4d816125e5565b9050919050565b60006020820190508181036000830152612a6d81612625565b9050919050565b60006020820190508181036000830152612a8d8161268b565b9050919050565b60006020820190508181036000830152612aad816126f1565b9050919050565b60006020820190508181036000830152612acd81612757565b9050919050565b6000602082019050612ae960008301846127bd565b92915050565b6000604051905081810181811067ffffffffffffffff82111715612b1657612b15612e6d565b5b8060405250919050565b600067ffffffffffffffff821115612b3b57612b3a612e6d565b5b601f19601f8301169050602081019050919050565b600067ffffffffffffffff821115612b6b57612b6a612e6d565b5b601f19601f8301169050602081019050919050565b600081519050919050565b600081519050919050565b600082825260208201905092915050565b600082825260208201905092915050565b600081905092915050565b6000612bce82612ce8565b9150612bd983612ce8565b9250827fffffffffffffffffffffffffffffffffffffffffffffffffffffffffffffffff03821115612c0e57612c0d612de0565b5b828201905092915050565b6000612c2482612ce8565b9150612c2f83612ce8565b925082612c3f57612c3e612e0f565b5b828204905092915050565b6000612c5582612ce8565b9150612c6083612ce8565b925082821015612c7357612c72612de0565b5b828203905092915050565b6000612c8982612cc8565b9050919050565b60008115159050919050565b60007fffffffff0000000000000000000000000000000000000000000000000000000082169050919050565b600073ffffffffffffffffffffffffffffffffffffffff82169050919050565b6000819050919050565b82818337600083830152505050565b60005b83811015612d1f578082015181840152602081019050612d04565b83811115612d2e576000848401525b50505050565b60006002820490506001821680612d4c57607f821691505b60208210811415612d6057612d5f612e3e565b5b50919050565b6000612d7182612ce8565b91507fffffffffffffffffffffffffffffffffffffffffffffffffffffffffffffffff821415612da457612da3612de0565b5b600182019050919050565b6000612dba82612ce8565b9150612dc583612ce8565b925082612dd557612dd4612e0f565b5b828206905092915050565b7f4e487b7100000000000000000000000000000000000000000000000000000000600052601160045260246000fd5b7f4e487b7100000000000000000000000000000000000000000000000000000000600052601260045260246000fd5b7f4e487b7100000000000000000000000000000000000000000000000000000000600052602260045260246000fd5b7f4e487b7100000000000000000000000000000000000000000000000000000000600052604160045260246000fd5b6000601f19601f8301169050919050565b612eb681612c7e565b8114612ec157600080fd5b50565b612ecd81612c90565b8114612ed857600080fd5b50565b612ee481612c9c565b8114612eef57600080fd5b50565b612efb81612ce8565b8114612f0657600080fd5b5056fe68747470733a2f2f697066732e696f2f697066732f62616679726569657a767a646769646e62726978783732326e6269336b72766d6a797a637268656637703235697467756c72666465677a61756b6d2f6d657461646174612e6a736f6ea2646970667358221220da2719bf37b51e2068c467bf944e9b1af4af081c9c9e589a3d46819d580ef08764736f6c63430008000033",
  "immutableReferences": {},
  "source": "// SPDX-License-Identifier: MIT\npragma solidity ^0.8.0;\n\nimport \"../node_modules/@openzeppelin/contracts/token/ERC721/extensions/ERC721URIStorage.sol\";\nimport \"../node_modules/@openzeppelin/contracts/utils/Counters.sol\";\nimport \"../node_modules/@openzeppelin/contracts/access/Ownable.sol\";\n\ncontract GameItem is ERC721URIStorage, Ownable {\n    using Counters for Counters.Counter;\n    Counters.Counter private _tokenIds;\n\n    // set contract name and ticker.\n    constructor() ERC721(\"Contract Name\", \"TIC\") {}\n\n    //get the current supply of tokens\n    function totalSupply() public view returns (uint256) {\n        return _tokenIds.current();\n    }\n\n    // for opensea collection\n    // ################## CHANGE: Added the ipfs json URI in return section in bellow contractURI() ##################\n    function contractURI() public pure returns (string memory) {\n        return\n            \"https://ipfs.io/ipfs/bafyreiezvzdgidnbrixx722nbi3krvmjyzcrhef7p25itgulrfdegzaukm/metadata.json\";\n    }\n\n    function mintItem(address player, string memory tokenURI)\n        public\n        onlyOwner\n        returns (uint256)\n    {\n        _tokenIds.increment();\n        uint256 newItemId = _tokenIds.current();\n        _mint(player, newItemId);\n        _setTokenURI(newItemId, tokenURI);\n        return newItemId;\n    }\n}\n",
  "sourcePath": "/Users/anis/projects/blockchain_projects/Truffle_ERC_721_polygon_nft_minting_with_opensea/contracts/GameItem.sol",
  "compiler": {
    "name": "solc",
    "version": "0.8.0+commit.c7dfd78e.Emscripten.clang"
  },
  "schemaVersion": "3.4.10",
  "updatedAt": "2022-10-31T08:45:48.002Z",
  "networkType": "ethereum",
  "devdoc": {
    "kind": "dev",
    "methods": {
      "approve(address,uint256)": {
        "details": "See {IERC721-approve}."
      },
      "balanceOf(address)": {
        "details": "See {IERC721-balanceOf}."
      },
      "getApproved(uint256)": {
        "details": "See {IERC721-getApproved}."
      },
      "isApprovedForAll(address,address)": {
        "details": "See {IERC721-isApprovedForAll}."
      },
      "name()": {
        "details": "See {IERC721Metadata-name}."
      },
      "owner()": {
        "details": "Returns the address of the current owner."
      },
      "ownerOf(uint256)": {
        "details": "See {IERC721-ownerOf}."
      },
      "renounceOwnership()": {
        "details": "Leaves the contract without owner. It will not be possible to call `onlyOwner` functions anymore. Can only be called by the current owner. NOTE: Renouncing ownership will leave the contract without an owner, thereby removing any functionality that is only available to the owner."
      },
      "safeTransferFrom(address,address,uint256)": {
        "details": "See {IERC721-safeTransferFrom}."
      },
      "safeTransferFrom(address,address,uint256,bytes)": {
        "details": "See {IERC721-safeTransferFrom}."
      },
      "setApprovalForAll(address,bool)": {
        "details": "See {IERC721-setApprovalForAll}."
      },
      "supportsInterface(bytes4)": {
        "details": "See {IERC165-supportsInterface}."
      },
      "symbol()": {
        "details": "See {IERC721Metadata-symbol}."
      },
      "tokenURI(uint256)": {
        "details": "See {IERC721Metadata-tokenURI}."
      },
      "transferFrom(address,address,uint256)": {
        "details": "See {IERC721-transferFrom}."
      },
      "transferOwnership(address)": {
        "details": "Transfers ownership of the contract to a new account (`newOwner`). Can only be called by the current owner."
      }
    },
    "version": 1
  },
  "userdoc": {
    "kind": "user",
    "methods": {},
    "version": 1
  }
}